:100000000C943A000C9444000C9444000C9444006A
:100010000C9444000C9444000C9444000C94440050
:100020000C9444000C9444000C9444000C94440040
:100030000C9444000C9444000C9444000C94440030
:100040000C9444000C9444000C9444000C94440020
:100050000C9444000C9444000C9444000C94440010
:100060000C9444000C9444000C9444000C94440000
:100070000C94440011241FBECFEFD4E0DEBFCDBFEF
:100080000E9482000C94C8010C940000E1E6F0E0AC
:1000900080E880831082A89584B7877F84BFE0E6DC
:1000A000F0E080818861808310820895811105C00D
:1000B000662311F0429A0895429808953A9A429A16
:1000C00008951092800085E0809381001092820054
:1000D0000895BC0180E090E00E943A012FE632E1F1
:1000E00043E05EE30E9499000E940B01109285009C
:1000F0001092840080918400909185008617970764
:10010000C8F308950E9446000E945E000E946100AC
:1001100061E080E00E94560084EF91E00E94690057
:1001200060E080E00E94560084EF91E00E94690048
:10013000EFCF0E94AD000C948E010E94870158F011
:100140000E94800140F029F45F3F29F00C94770170
:1001500051110C94C2010C947D010E949F0168F31F
:100160009923B1F3552391F3951B550BBB27AA2770
:1001700062177307840738F09F5F5F4F220F331FAA
:10018000441FAA1FA9F335D00E2E3AF0E0E832D072
:1001900091505040E695001CCAF72BD0FE2F29D075
:1001A000660F771F881FBB1F261737074807AB0747
:1001B000B0E809F0BB0B802DBF01FF2793585F4FBC
:1001C0003AF09E3F510578F00C9477010C94C201EF
:1001D0005F3FE4F3983ED4F3869577956795B7959E
:1001E000F7959F5FC9F7880F911D9695879597F9A9
:1001F0000895E1E0660F771F881FBB1F6217730722
:100200008407BA0720F0621B730B840BBA0BEE1F36
:1002100088F7E09508950E94A70188F09F5798F00D
:10022000B92F9927B751B0F0E1F0660F771F881FFB
:10023000991F1AF0BA95C9F714C0B13091F00E9415
:10024000C101B1E008950C94C101672F782F882770
:10025000B85F39F0B93FCCF3869577956795B3953C
:10026000D9F73EF490958095709561957F4F8F4FAB
:100270009F4F0895E89409C097FB3EF490958095B0
:10028000709561957F4F8F4F9F4F9923A9F0F92F5C
:1002900096E9BB279395F695879577956795B795DA
:1002A000F111F8CFFAF4BB0F11F460FF1BC06F5FC0
:1002B0007F4F8F4F9F4F16C0882311F096E911C0D2
:1002C000772321F09EE8872F762F05C0662371F0F3
:1002D00096E8862F70E060E02AF09A95660F771F07
:1002E000881FDAF7880F9695879597F9089597F9FB
:1002F0009F6780E870E060E008959FEF80EC0895CC
:1003000000240A94161617061806090608950024F4
:100310000A9412161306140605060895092E03946E
:10032000000C11F4882352F0BB0F40F4BF2B11F4E2
:1003300060FF04C06F5F7F4F8F4F9F4F089557FD41
:100340009058440F551F59F05F3F71F04795880F43
:1003500097FB991F61F09F3F79F0879508951216DA
:1003600013061406551FF2CF4695F1DF08C0161686
:1003700017061806991FF1CF869571056105089437
:100380000895E894BB2766277727CB0197F908954E
:04039000F894FFCF0F
:00000001FF
