:100000000C943A000C944C000C944C000C944C0052
:100010000C944C000C944C000C944C000C944C0030
:100020000C944C000C944C000C944C000C944C0020
:100030000C944C000C944C000C944C000C944C0010
:100040000C944C000C944C000C944C000C944C0000
:100050000C944C000C944C000C944C000C944C00F0
:100060000C944C000C944C000C944C000C944C00E0
:100070000C944C0011241FBECFEFD4E0DEBFCDBFE7
:1000800021E0A0E0B1E001C01D92A230B207E1F78B
:100090000E948B000C94D4000C9400009C01FC0185
:1000A000FF2784A1832B84A395A1892F832B85A36C
:1000B00081E00895E1E6F0E080E880831082A89571
:1000C00084B7877F84BFE0E6F0E080818861808329
:1000D00010820895BC011092800085E08093810019
:1000E0001092820080E094E00E94C00070930101B1
:1000F0006093000108958091000190910101209189
:1001000084003091850028173907C8F310928500C4
:100110001092840008950E945A0080E090E40E94AA
:100120004E0080E091E00E944E0083E090E40E9447
:100130004E0080E090E80E944E0083E090E10E9433
:100140004E0083E090E80E944E0083E090E20E941F
:100150004E0082E390E00E946A000E947B002E988D
:10016000289846982F9A449A479A459A0E947B006D
:100170002E984598289A469A2F9A449A479AEDCFF6
:10018000AA1BBB1B51E107C0AA1FBB1FA617B707BD
:1001900010F0A61BB70B881F991F5A95A9F78095D9
:0C01A0009095BC01CD010895F894FFCFAC
:00000001FF
