:100000000C943A000C9457000C9457000C94570031
:100010000C9457000C9457000C9457000C94570004
:100020000C9457000C9457000C9457000C945700F4
:100030000C9457000C9457000C9457000C945700E4
:100040000C9457000C9457000C9457000C945700D4
:100050000C9457000C9457000C9457000C945700C4
:100060000C9457000C9457000C9457000C945700B4
:100070000C94570011241FBECFEFD4E0DEBFCDBFDC
:1000800012E0A0E0B1E0E6E7F3E002C005900D92D7
:10009000AA36B107D9F722E0AAE6B2E001C01D9264
:1000A000AF36B207E1F70E941A010C94B9010C9423
:1000B0000000E1E6F0E080E880831082A89584B734
:1000C000877F84BFE0E6F0E08081886180831082D2
:1000D00008951092800084E0809381001092850042
:1000E0001092840008958091840090918500089575
:1000F000AC0180918400909185009C01241B350BFC
:10010000283E3340B0F70895209184003091850057
:10011000820F931F0C9478009C01FC01FF2784A19F
:10012000832B84A395A1892F832B85A381E0089538
:10013000CF93DF93CFE4D2E0899199910E948C0014
:1001400082E0CD35D807C1F783E090E40E948C00AF
:1001500080E090E80E948C0083E090E10E948C0097
:1001600083E090E80E948C0083E090E2DF91CF91E1
:100170000C948C00E0916A02F0E0EE0FFF1FEB5B45
:10018000FD4F20813181F901FF2795A1932B95A384
:10019000EFE4F2E097E020813181D901BB27959609
:1001A0002C91959780FF03C03095232301C0232B0A
:1001B00095962C938695915032969111ECCFE62F1F
:1001C000F0E0EE0FFF1FEB5BFD4F80819181FC01A2
:1001D000FF2785A19095892385A360936A020895DE
:1001E000CF93DF93EC010E9469009E0140E050E054
:1001F00062E17AE780E090E00E94780130936E023D
:1002000020936D02DF91CF91089580916B029091C0
:100210006C020E94780020916B0230916C028091F8
:100220006D0290916E02820F931F90936C028093E7
:100230006B020895CF93DF93CDB7DEB72C970FB63F
:10024000F894DEBF0FBECDBF8CE0EDE5F2E0DE013D
:10025000119601900D928A95E1F70E9459000E9433
:1002600098008CE291E00E94F000F12C00E010E098
:100270000E940501E1E0F0E0EC0FFD1FE00FF11D31
:100280008081082E000C990B809765E070E00E9439
:10029000670180509F4FFC01E10FF11D612F8081AC
:1002A0000E94BA001F5F153008F010E0F39485E952
:1002B0008F15F0F60F5FE1E0F0E0EC0FFD1FE00FAF
:1002C000F11D8081F12C8111D3CF00E0D1CF00242A
:1002D000552704C0080E591F880F991F009729F051
:1002E00076956795B8F37105B9F7802D952F089528
:1002F000052E97FB1EF400940E948F0157FD07D036
:100300000E94970107FC03D04EF40C948F01509586
:100310004095309521953F4F4F4F5F4F08959095F1
:100320008095709561957F4F8F4F9F4F0895A1E203
:100330001A2EAA1BBB1BFD010DC0AA1FBB1FEE1F5F
:10034000FF1FA217B307E407F50720F0A21BB30BAA
:10035000E40BF50B661F771F881F991F1A9469F726
:1003600060957095809590959B01AC01BD01CF0182
:060370000895F894FFCF90
:10037600000000000000005F000000030003001200
:100386007F127F1226497F49324333086661364918
:100396005523500000030000001C63410000416328
:1003A6001C00492A7F2A4908087F08080040700077
:1003B6000008080808080000400000403008060150
:1003C6003E5149453E00427F400042615149462127
:1003D60041454B311814127F1027454545393C4A93
:1003E60049493001017905033749494936064949E2
:1003F600291E0000140000004074000000081422AA
:10040600411414141414412214080000065905025C
:100416003E414D514E7E1111117E417F4949363E76
:1004260041414122417F41413E7F494949497F0936
:100436000909013E4141497A7F0808087F00417F4A
:1004460041002040413F017F081422417F40404047
:10045600407F020C027F7F0608307F3E4141413ECD
:100466007F090909067E4151215E7F091929462621
:100476004949493201017F01013F4040403F1F2069
:1004860040201F7F2018207F63140814630708701C
:1004960008076151494543007F4141000106083084
:1004A600400041417F0000060106004040404040B8
:1004B60000010200000340008003100380032000B7
:1004C6004000200010000800040002000148454CCE
:0A04D6004C4F20574F524C440000D9
:00000001FF
